{
  "_format": "hh-sol-artifact-1",
  "contractName": "ClubHub",
  "sourceName": "contracts/ClubHub.sol",
  "abi": [
    {
      "anonymous": false,
      "inputs": [
        {
          "indexed": false,
          "internalType": "uint256",
          "name": "clubId",
          "type": "uint256"
        },
        {
          "indexed": false,
          "internalType": "string",
          "name": "name",
          "type": "string"
        },
        {
          "indexed": false,
          "internalType": "string",
          "name": "description",
          "type": "string"
        },
        {
          "indexed": false,
          "internalType": "uint256",
          "name": "basicFee",
          "type": "uint256"
        },
        {
          "indexed": false,
          "internalType": "uint256",
          "name": "proFee",
          "type": "uint256"
        },
        {
          "indexed": false,
          "internalType": "uint256",
          "name": "eliteFee",
          "type": "uint256"
        },
        {
          "indexed": false,
          "internalType": "address",
          "name": "organizer",
          "type": "address"
        },
        {
          "indexed": false,
          "internalType": "string",
          "name": "imageUrl",
          "type": "string"
        }
      ],
      "name": "ClubRegistered",
      "type": "event"
    },
    {
      "anonymous": false,
      "inputs": [
        {
          "indexed": false,
          "internalType": "uint256",
          "name": "clubId",
          "type": "uint256"
        },
        {
          "indexed": false,
          "internalType": "address",
          "name": "member",
          "type": "address"
        }
      ],
      "name": "MembershipEnrolled",
      "type": "event"
    },
    {
      "inputs": [
        {
          "internalType": "uint256",
          "name": "",
          "type": "uint256"
        }
      ],
      "name": "clubs",
      "outputs": [
        {
          "internalType": "string",
          "name": "name",
          "type": "string"
        },
        {
          "internalType": "string",
          "name": "description",
          "type": "string"
        },
        {
          "internalType": "uint256",
          "name": "basicFee",
          "type": "uint256"
        },
        {
          "internalType": "uint256",
          "name": "proFee",
          "type": "uint256"
        },
        {
          "internalType": "uint256",
          "name": "eliteFee",
          "type": "uint256"
        },
        {
          "internalType": "address",
          "name": "organizer",
          "type": "address"
        },
        {
          "internalType": "string",
          "name": "imageUrl",
          "type": "string"
        }
      ],
      "stateMutability": "view",
      "type": "function"
    },
    {
      "inputs": [
        {
          "internalType": "address",
          "name": "",
          "type": "address"
        },
        {
          "internalType": "uint256",
          "name": "",
          "type": "uint256"
        }
      ],
      "name": "clubsByMember",
      "outputs": [
        {
          "internalType": "uint256",
          "name": "",
          "type": "uint256"
        }
      ],
      "stateMutability": "view",
      "type": "function"
    },
    {
      "inputs": [
        {
          "internalType": "address",
          "name": "",
          "type": "address"
        },
        {
          "internalType": "uint256",
          "name": "",
          "type": "uint256"
        }
      ],
      "name": "clubsByOrganizer",
      "outputs": [
        {
          "internalType": "uint256",
          "name": "",
          "type": "uint256"
        }
      ],
      "stateMutability": "view",
      "type": "function"
    },
    {
      "inputs": [
        {
          "internalType": "uint256",
          "name": "clubId",
          "type": "uint256"
        },
        {
          "internalType": "enum ClubHub.MembershipType",
          "name": "membershipType",
          "type": "uint8"
        }
      ],
      "name": "enrollMembership",
      "outputs": [],
      "stateMutability": "payable",
      "type": "function"
    },
    {
      "inputs": [],
      "name": "getClubs",
      "outputs": [
        {
          "components": [
            {
              "internalType": "string",
              "name": "name",
              "type": "string"
            },
            {
              "internalType": "string",
              "name": "description",
              "type": "string"
            },
            {
              "internalType": "uint256",
              "name": "basicFee",
              "type": "uint256"
            },
            {
              "internalType": "uint256",
              "name": "proFee",
              "type": "uint256"
            },
            {
              "internalType": "uint256",
              "name": "eliteFee",
              "type": "uint256"
            },
            {
              "internalType": "address",
              "name": "organizer",
              "type": "address"
            },
            {
              "internalType": "address[]",
              "name": "members",
              "type": "address[]"
            },
            {
              "internalType": "string",
              "name": "imageUrl",
              "type": "string"
            }
          ],
          "internalType": "struct ClubHub.Club[]",
          "name": "",
          "type": "tuple[]"
        }
      ],
      "stateMutability": "view",
      "type": "function"
    },
    {
      "inputs": [],
      "name": "getClubsByMember",
      "outputs": [
        {
          "components": [
            {
              "internalType": "string",
              "name": "name",
              "type": "string"
            },
            {
              "internalType": "string",
              "name": "description",
              "type": "string"
            },
            {
              "internalType": "uint256",
              "name": "basicFee",
              "type": "uint256"
            },
            {
              "internalType": "uint256",
              "name": "proFee",
              "type": "uint256"
            },
            {
              "internalType": "uint256",
              "name": "eliteFee",
              "type": "uint256"
            },
            {
              "internalType": "address",
              "name": "organizer",
              "type": "address"
            },
            {
              "internalType": "address[]",
              "name": "members",
              "type": "address[]"
            },
            {
              "internalType": "string",
              "name": "imageUrl",
              "type": "string"
            }
          ],
          "internalType": "struct ClubHub.Club[]",
          "name": "",
          "type": "tuple[]"
        }
      ],
      "stateMutability": "view",
      "type": "function"
    },
    {
      "inputs": [],
      "name": "getClubsByOrganizer",
      "outputs": [
        {
          "components": [
            {
              "internalType": "string",
              "name": "name",
              "type": "string"
            },
            {
              "internalType": "string",
              "name": "description",
              "type": "string"
            },
            {
              "internalType": "uint256",
              "name": "basicFee",
              "type": "uint256"
            },
            {
              "internalType": "uint256",
              "name": "proFee",
              "type": "uint256"
            },
            {
              "internalType": "uint256",
              "name": "eliteFee",
              "type": "uint256"
            },
            {
              "internalType": "address",
              "name": "organizer",
              "type": "address"
            },
            {
              "internalType": "address[]",
              "name": "members",
              "type": "address[]"
            },
            {
              "internalType": "string",
              "name": "imageUrl",
              "type": "string"
            }
          ],
          "internalType": "struct ClubHub.Club[]",
          "name": "",
          "type": "tuple[]"
        }
      ],
      "stateMutability": "view",
      "type": "function"
    },
    {
      "inputs": [
        {
          "internalType": "string",
          "name": "_name",
          "type": "string"
        },
        {
          "internalType": "string",
          "name": "_description",
          "type": "string"
        },
        {
          "internalType": "uint256",
          "name": "_basicFee",
          "type": "uint256"
        },
        {
          "internalType": "uint256",
          "name": "_proFee",
          "type": "uint256"
        },
        {
          "internalType": "uint256",
          "name": "_eliteFee",
          "type": "uint256"
        },
        {
          "internalType": "string",
          "name": "_imageUrl",
          "type": "string"
        }
      ],
      "name": "registerClub",
      "outputs": [],
      "stateMutability": "nonpayable",
      "type": "function"
    }
  ],
  "bytecode": "0x608060405234801561001057600080fd5b5061231f806100206000396000f3fe60806040526004361061007b5760003560e01c8063b853d2c81161004e578063b853d2c814610147578063c54f563314610172578063d80ec344146101af578063e55329ee146101da5761007b565b80630d10f52f146100805780637586a2bd146100bd5780639cc009c1146100e8578063b13c1dd31461012b575b600080fd5b34801561008c57600080fd5b506100a760048036038101906100a291906116ad565b610203565b6040516100b491906116fc565b60405180910390f35b3480156100c957600080fd5b506100d2610234565b6040516100df91906119fb565b60405180910390f35b3480156100f457600080fd5b5061010f600480360381019061010a9190611a1d565b61054c565b6040516101229796959493929190611aa3565b60405180910390f35b61014560048036038101906101409190611b4c565b610756565b005b34801561015357600080fd5b5061015c610a1f565b60405161016991906119fb565b60405180910390f35b34801561017e57600080fd5b50610199600480360381019061019491906116ad565b610e52565b6040516101a691906116fc565b60405180910390f35b3480156101bb57600080fd5b506101c4610e83565b6040516101d191906119fb565b60405180910390f35b3480156101e657600080fd5b5061020160048036038101906101fc9190611cc1565b6112b6565b005b6001602052816000526040600020818154811061021f57600080fd5b90600052602060002001600091509150505481565b60606000805480602002602001604051908101604052809291908181526020016000905b8282101561054357838290600052602060002090600802016040518061010001604052908160008201805461028c90611dd1565b80601f01602080910402602001604051908101604052809291908181526020018280546102b890611dd1565b80156103055780601f106102da57610100808354040283529160200191610305565b820191906000526020600020905b8154815290600101906020018083116102e857829003601f168201915b5050505050815260200160018201805461031e90611dd1565b80601f016020809104026020016040519081016040528092919081815260200182805461034a90611dd1565b80156103975780601f1061036c57610100808354040283529160200191610397565b820191906000526020600020905b81548152906001019060200180831161037a57829003601f168201915b505050505081526020016002820154815260200160038201548152602001600482015481526020016005820160009054906101000a900473ffffffffffffffffffffffffffffffffffffffff1673ffffffffffffffffffffffffffffffffffffffff1673ffffffffffffffffffffffffffffffffffffffff1681526020016006820180548060200260200160405190810160405280929190818152602001828054801561049957602002820191906000526020600020905b8160009054906101000a900473ffffffffffffffffffffffffffffffffffffffff1673ffffffffffffffffffffffffffffffffffffffff168152602001906001019080831161044f575b505050505081526020016007820180546104b290611dd1565b80601f01602080910402602001604051908101604052809291908181526020018280546104de90611dd1565b801561052b5780601f106105005761010080835404028352916020019161052b565b820191906000526020600020905b81548152906001019060200180831161050e57829003601f168201915b50505050508152505081526020019060010190610258565b50505050905090565b6000818154811061055c57600080fd5b906000526020600020906008020160009150905080600001805461057f90611dd1565b80601f01602080910402602001604051908101604052809291908181526020018280546105ab90611dd1565b80156105f85780601f106105cd576101008083540402835291602001916105f8565b820191906000526020600020905b8154815290600101906020018083116105db57829003601f168201915b50505050509080600101805461060d90611dd1565b80601f016020809104026020016040519081016040528092919081815260200182805461063990611dd1565b80156106865780601f1061065b57610100808354040283529160200191610686565b820191906000526020600020905b81548152906001019060200180831161066957829003601f168201915b5050505050908060020154908060030154908060040154908060050160009054906101000a900473ffffffffffffffffffffffffffffffffffffffff16908060070180546106d390611dd1565b80601f01602080910402602001604051908101604052809291908181526020018280546106ff90611dd1565b801561074c5780601f106107215761010080835404028352916020019161074c565b820191906000526020600020905b81548152906001019060200180831161072f57829003601f168201915b5050505050905087565b600080549050821061079d576040517f08c379a000000000000000000000000000000000000000000000000000000000815260040161079490611e4e565b60405180910390fd5b60008083815481106107b2576107b1611e6e565b5b9060005260206000209060080201905060008060028111156107d7576107d6611e9d565b5b8360028111156107ea576107e9611e9d565b5b036107fb5781600201549050610868565b6001600281111561080f5761080e611e9d565b5b83600281111561082257610821611e9d565b5b036108335781600301549050610867565b60028081111561084657610845611e9d565b5b83600281111561085957610858611e9d565b5b0361086657816004015490505b5b5b8034146108aa576040517f08c379a00000000000000000000000000000000000000000000000000000000081526004016108a190611f18565b60405180910390fd5b81600601339080600181540180825580915050600190039060005260206000200160009091909190916101000a81548173ffffffffffffffffffffffffffffffffffffffff021916908373ffffffffffffffffffffffffffffffffffffffff1602179055507f417b82d3cf85a351234531cd41ee66b7e5d32f110edccb188bffd21599ecc2ef8433604051610940929190611f38565b60405180910390a18160050160009054906101000a900473ffffffffffffffffffffffffffffffffffffffff1673ffffffffffffffffffffffffffffffffffffffff166108fc349081150290604051600060405180830381858888f193505050501580156109b2573d6000803e3d6000fd5b50600260003373ffffffffffffffffffffffffffffffffffffffff1673ffffffffffffffffffffffffffffffffffffffff16815260200190815260200160002084908060018154018082558091505060019003906000526020600020016000909190919091505550505050565b60606000600260003373ffffffffffffffffffffffffffffffffffffffff1673ffffffffffffffffffffffffffffffffffffffff168152602001908152602001600020805480602002602001604051908101604052809291908181526020018280548015610aac57602002820191906000526020600020905b815481526020019060010190808311610a98575b505050505090506000815167ffffffffffffffff811115610ad057610acf611b96565b5b604051908082528060200260200182016040528015610b0957816020015b610af6611503565b815260200190600190039081610aee5790505b50905060005b8251811015610e49576000838281518110610b2d57610b2c611e6e565b5b602002602001015181548110610b4657610b45611e6e565b5b906000526020600020906008020160405180610100016040529081600082018054610b7090611dd1565b80601f0160208091040260200160405190810160405280929190818152602001828054610b9c90611dd1565b8015610be95780601f10610bbe57610100808354040283529160200191610be9565b820191906000526020600020905b815481529060010190602001808311610bcc57829003601f168201915b50505050508152602001600182018054610c0290611dd1565b80601f0160208091040260200160405190810160405280929190818152602001828054610c2e90611dd1565b8015610c7b5780601f10610c5057610100808354040283529160200191610c7b565b820191906000526020600020905b815481529060010190602001808311610c5e57829003601f168201915b505050505081526020016002820154815260200160038201548152602001600482015481526020016005820160009054906101000a900473ffffffffffffffffffffffffffffffffffffffff1673ffffffffffffffffffffffffffffffffffffffff1673ffffffffffffffffffffffffffffffffffffffff16815260200160068201805480602002602001604051908101604052809291908181526020018280548015610d7d57602002820191906000526020600020905b8160009054906101000a900473ffffffffffffffffffffffffffffffffffffffff1673ffffffffffffffffffffffffffffffffffffffff1681526020019060010190808311610d33575b50505050508152602001600782018054610d9690611dd1565b80601f0160208091040260200160405190810160405280929190818152602001828054610dc290611dd1565b8015610e0f5780601f10610de457610100808354040283529160200191610e0f565b820191906000526020600020905b815481529060010190602001808311610df257829003601f168201915b505050505081525050828281518110610e2b57610e2a611e6e565b5b60200260200101819052508080610e4190611f90565b915050610b0f565b50809250505090565b60026020528160005260406000208181548110610e6e57600080fd5b90600052602060002001600091509150505481565b60606000600160003373ffffffffffffffffffffffffffffffffffffffff1673ffffffffffffffffffffffffffffffffffffffff168152602001908152602001600020805480602002602001604051908101604052809291908181526020018280548015610f1057602002820191906000526020600020905b815481526020019060010190808311610efc575b505050505090506000815167ffffffffffffffff811115610f3457610f33611b96565b5b604051908082528060200260200182016040528015610f6d57816020015b610f5a611503565b815260200190600190039081610f525790505b50905060005b82518110156112ad576000838281518110610f9157610f90611e6e565b5b602002602001015181548110610faa57610fa9611e6e565b5b906000526020600020906008020160405180610100016040529081600082018054610fd490611dd1565b80601f016020809104026020016040519081016040528092919081815260200182805461100090611dd1565b801561104d5780601f106110225761010080835404028352916020019161104d565b820191906000526020600020905b81548152906001019060200180831161103057829003601f168201915b5050505050815260200160018201805461106690611dd1565b80601f016020809104026020016040519081016040528092919081815260200182805461109290611dd1565b80156110df5780601f106110b4576101008083540402835291602001916110df565b820191906000526020600020905b8154815290600101906020018083116110c257829003601f168201915b505050505081526020016002820154815260200160038201548152602001600482015481526020016005820160009054906101000a900473ffffffffffffffffffffffffffffffffffffffff1673ffffffffffffffffffffffffffffffffffffffff1673ffffffffffffffffffffffffffffffffffffffff168152602001600682018054806020026020016040519081016040528092919081815260200182805480156111e157602002820191906000526020600020905b8160009054906101000a900473ffffffffffffffffffffffffffffffffffffffff1673ffffffffffffffffffffffffffffffffffffffff1681526020019060010190808311611197575b505050505081526020016007820180546111fa90611dd1565b80601f016020809104026020016040519081016040528092919081815260200182805461122690611dd1565b80156112735780601f1061124857610100808354040283529160200191611273565b820191906000526020600020905b81548152906001019060200180831161125657829003601f168201915b50505050508152505082828151811061128f5761128e611e6e565b5b602002602001018190525080806112a590611f90565b915050610f73565b50809250505090565b60006040518061010001604052808881526020018781526020018681526020018581526020018481526020013373ffffffffffffffffffffffffffffffffffffffff168152602001600067ffffffffffffffff81111561131957611318611b96565b5b6040519080825280602002602001820160405280156113475781602001602082028036833780820191505090505b5081526020018381525090506000808054905090506000829080600181540180825580915050600190039060005260206000209060080201600090919091909150600082015181600001908161139d9190612184565b5060208201518160010190816113b39190612184565b5060408201518160020155606082015181600301556080820151816004015560a08201518160050160006101000a81548173ffffffffffffffffffffffffffffffffffffffff021916908373ffffffffffffffffffffffffffffffffffffffff16021790555060c082015181600601908051906020019061143592919061155e565b5060e082015181600701908161144b9190612184565b5050507f6918f1b859d356b7e17a92599687d78b3624d5dd7cca3740d2ee2ebe531c9fd4818989898989338a60405161148b989796959493929190612256565b60405180910390a1600160003373ffffffffffffffffffffffffffffffffffffffff1673ffffffffffffffffffffffffffffffffffffffff1681526020019081526020016000208190806001815401808255809150506001900390600052602060002001600090919091909150555050505050505050565b6040518061010001604052806060815260200160608152602001600081526020016000815260200160008152602001600073ffffffffffffffffffffffffffffffffffffffff16815260200160608152602001606081525090565b8280548282559060005260206000209081019282156115d7579160200282015b828111156115d65782518260006101000a81548173ffffffffffffffffffffffffffffffffffffffff021916908373ffffffffffffffffffffffffffffffffffffffff1602179055509160200191906001019061157e565b5b5090506115e491906115e8565b5090565b5b808211156116015760008160009055506001016115e9565b5090565b6000604051905090565b600080fd5b600080fd5b600073ffffffffffffffffffffffffffffffffffffffff82169050919050565b600061164482611619565b9050919050565b61165481611639565b811461165f57600080fd5b50565b6000813590506116718161164b565b92915050565b6000819050919050565b61168a81611677565b811461169557600080fd5b50565b6000813590506116a781611681565b92915050565b600080604083850312156116c4576116c361160f565b5b60006116d285828601611662565b92505060206116e385828601611698565b9150509250929050565b6116f681611677565b82525050565b600060208201905061171160008301846116ed565b92915050565b600081519050919050565b600082825260208201905092915050565b6000819050602082019050919050565b600081519050919050565b600082825260208201905092915050565b60005b8381101561177d578082015181840152602081019050611762565b60008484015250505050565b6000601f19601f8301169050919050565b60006117a582611743565b6117af818561174e565b93506117bf81856020860161175f565b6117c881611789565b840191505092915050565b6117dc81611677565b82525050565b6117eb81611639565b82525050565b600081519050919050565b600082825260208201905092915050565b6000819050602082019050919050565b600061182983836117e2565b60208301905092915050565b6000602082019050919050565b600061184d826117f1565b61185781856117fc565b93506118628361180d565b8060005b8381101561189357815161187a888261181d565b975061188583611835565b925050600181019050611866565b5085935050505092915050565b60006101008301600083015184820360008601526118be828261179a565b915050602083015184820360208601526118d8828261179a565b91505060408301516118ed60408601826117d3565b50606083015161190060608601826117d3565b50608083015161191360808601826117d3565b5060a083015161192660a08601826117e2565b5060c083015184820360c086015261193e8282611842565b91505060e083015184820360e0860152611958828261179a565b9150508091505092915050565b600061197183836118a0565b905092915050565b6000602082019050919050565b600061199182611717565b61199b8185611722565b9350836020820285016119ad85611733565b8060005b858110156119e957848403895281516119ca8582611965565b94506119d583611979565b925060208a019950506001810190506119b1565b50829750879550505050505092915050565b60006020820190508181036000830152611a158184611986565b905092915050565b600060208284031215611a3357611a3261160f565b5b6000611a4184828501611698565b91505092915050565b600082825260208201905092915050565b6000611a6682611743565b611a708185611a4a565b9350611a8081856020860161175f565b611a8981611789565b840191505092915050565b611a9d81611639565b82525050565b600060e0820190508181036000830152611abd818a611a5b565b90508181036020830152611ad18189611a5b565b9050611ae060408301886116ed565b611aed60608301876116ed565b611afa60808301866116ed565b611b0760a0830185611a94565b81810360c0830152611b198184611a5b565b905098975050505050505050565b60038110611b3457600080fd5b50565b600081359050611b4681611b27565b92915050565b60008060408385031215611b6357611b6261160f565b5b6000611b7185828601611698565b9250506020611b8285828601611b37565b9150509250929050565b600080fd5b600080fd5b7f4e487b7100000000000000000000000000000000000000000000000000000000600052604160045260246000fd5b611bce82611789565b810181811067ffffffffffffffff82111715611bed57611bec611b96565b5b80604052505050565b6000611c00611605565b9050611c0c8282611bc5565b919050565b600067ffffffffffffffff821115611c2c57611c2b611b96565b5b611c3582611789565b9050602081019050919050565b82818337600083830152505050565b6000611c64611c5f84611c11565b611bf6565b905082815260208101848484011115611c8057611c7f611b91565b5b611c8b848285611c42565b509392505050565b600082601f830112611ca857611ca7611b8c565b5b8135611cb8848260208601611c51565b91505092915050565b60008060008060008060c08789031215611cde57611cdd61160f565b5b600087013567ffffffffffffffff811115611cfc57611cfb611614565b5b611d0889828a01611c93565b965050602087013567ffffffffffffffff811115611d2957611d28611614565b5b611d3589828a01611c93565b9550506040611d4689828a01611698565b9450506060611d5789828a01611698565b9350506080611d6889828a01611698565b92505060a087013567ffffffffffffffff811115611d8957611d88611614565b5b611d9589828a01611c93565b9150509295509295509295565b7f4e487b7100000000000000000000000000000000000000000000000000000000600052602260045260246000fd5b60006002820490506001821680611de957607f821691505b602082108103611dfc57611dfb611da2565b5b50919050565b7f436c756220494420646f6573206e6f7420657869737400000000000000000000600082015250565b6000611e38601683611a4a565b9150611e4382611e02565b602082019050919050565b60006020820190508181036000830152611e6781611e2b565b9050919050565b7f4e487b7100000000000000000000000000000000000000000000000000000000600052603260045260246000fd5b7f4e487b7100000000000000000000000000000000000000000000000000000000600052602160045260246000fd5b7f496e636f7272656374206d656d62657273686970206665650000000000000000600082015250565b6000611f02601883611a4a565b9150611f0d82611ecc565b602082019050919050565b60006020820190508181036000830152611f3181611ef5565b9050919050565b6000604082019050611f4d60008301856116ed565b611f5a6020830184611a94565b9392505050565b7f4e487b7100000000000000000000000000000000000000000000000000000000600052601160045260246000fd5b6000611f9b82611677565b91507fffffffffffffffffffffffffffffffffffffffffffffffffffffffffffffffff8203611fcd57611fcc611f61565b5b600182019050919050565b60008190508160005260206000209050919050565b60006020601f8301049050919050565b600082821b905092915050565b60006008830261203a7fffffffffffffffffffffffffffffffffffffffffffffffffffffffffffffffff82611ffd565b6120448683611ffd565b95508019841693508086168417925050509392505050565b6000819050919050565b600061208161207c61207784611677565b61205c565b611677565b9050919050565b6000819050919050565b61209b83612066565b6120af6120a782612088565b84845461200a565b825550505050565b600090565b6120c46120b7565b6120cf818484612092565b505050565b5b818110156120f3576120e86000826120bc565b6001810190506120d5565b5050565b601f8211156121385761210981611fd8565b61211284611fed565b81016020851015612121578190505b61213561212d85611fed565b8301826120d4565b50505b505050565b600082821c905092915050565b600061215b6000198460080261213d565b1980831691505092915050565b6000612174838361214a565b9150826002028217905092915050565b61218d82611743565b67ffffffffffffffff8111156121a6576121a5611b96565b5b6121b08254611dd1565b6121bb8282856120f7565b600060209050601f8311600181146121ee57600084156121dc578287015190505b6121e68582612168565b86555061224e565b601f1984166121fc86611fd8565b60005b82811015612224578489015182556001820191506020850194506020810190506121ff565b86831015612241578489015161223d601f89168261214a565b8355505b6001600288020188555050505b505050505050565b60006101008201905061226c600083018b6116ed565b818103602083015261227e818a611a5b565b905081810360408301526122928189611a5b565b90506122a160608301886116ed565b6122ae60808301876116ed565b6122bb60a08301866116ed565b6122c860c0830185611a94565b81810360e08301526122da8184611a5b565b9050999850505050505050505056fea26469706673582212206fa96987c05cc97118c080c85c13f698ed699444b7910791759c258eb506235a64736f6c63430008130033",
  "linkReferences": {},
  "deployedLinkReferences": {}
}